:020000040800F2
:10000000300B002001010008D70F0008CB010008C9
:10001000D50F0008A5020008271300080000000003
:10002000000000000000000000000000F90F0008C0
:10003000A70200080000000053010008FB0F0008A1
:100040001B0100081B0100081B0100081B01000820
:100050001B0100081B0100081B0100081B01000810
:100060001B0100081B0100081B0100081B01000800
:100070001B0100081B0100081B0100081B010008F0
:100080001B0100081B0100081B0100081B010008E0
:100090001B0100081B0100081B0100081B010008D0
:1000A0001B0100081B0100081B0100081B010008C0
:1000B0001B0100081B0100081B0100081B010008B0
:1000C0001B0100081B0100081B0100081B010008A0
:1000D0001B0100081B0100081B0100081B01000890
:1000E0001B0100081B0100081B010008DFF80CD0F1
:1000F00000F090F80048004739020008300B00205B
:100100000648804706480047FEE7FEE7FEE7FEE7B1
:10011000FEE7FEE7FEE7FEE7FEE7FEE7DD1000088C
:10012000ED000008EFF3108072B6704780F310887E
:100130007047324A1368012B04D04FF0010313605B
:100140002F4A10602F4A11602F484FF080510160F4
:100150007047EFF3108272B62848016891B14FF0F2
:10016000000101602648016829B1EFF3098121E906
:10017000F00F00680160234909680968B1E8F00FD1
:1001800081F3098882F310884EF0040E70471D49F0
:1001900008601B494FF00000086018494FF001004B
:1001A00008601A484FF47F01D0F8002041EA0201AC
:1001B000016015484FF080510160154800680068E3
:1001C00080F3088861B662B670471EF0040F14BF52
:1001D000EFF30880EFF3098020E9F00F40F804ED19
:1001E00014BF80F3088880F3098800B501F0A4FAF1
:1001F0005DF804EB4EF0040E704700001400002080
:100200000C0000201000002004ED00E020ED00E0D4
:1002100008ED00E0064C074D06E0E06840F0010301
:1002200094E8070098471034AC42F6D3FFF762FF1A
:10023000AC250008CC25000810B5FFF773FF02F0CD
:10024000E7F8002010BD000010B506A001F06CF822
:100250000BA001F069F80EA001F066F8BDE81040AF
:1002600001F002B953544D333246313033433854E0
:10027000362048414C5F50726F6A6563740D0A0006
:100280004279A3BA53696D706C650D0A00000000D5
:1002900044617465A3BA382F33302F323031370DB3
:1002A0000A000000FEE77047FEE731B500F0E6F80F
:1002B000044600F0E3F80099001B8842F9D338BDEA
:1002C0002DE9F84FDFF890A100220AF1040B144643
:1002D00001274FF00F090BF1040E00BF0B6807FA5E
:1002E00004F52B40AB4274D1DFF870C14E68A6EB29
:1002F0000C0866452BD00DDC032E34D005DC36B35C
:10030000012E19D0022E2FD11BE0112E16D0122E45
:100310002AD119E0B8F5881F19D006DCB8F5803F5E
:1003200015D0B8F5801F1FD111E0B8F5001F0ED011
:10033000B8F5041F18D10AE0CA6815E0CA68121D92
:1003400012E0CA6808320FE0CA680C320CE08A6812
:100350002AB1012A4FF0080203D0456104E00422CB
:1003600002E0056100E00022FF2B01D8064601E013
:1003700000F104064FEA840501D9A5F12005D6F85D
:1003800000C009FA05F82CEA080C02FA05F54CEA57
:10039000050CC6F800C04D68ED0057D5304DAE696C
:1003A00046F00106AE61AD6924F0030605F00105D3
:1003B00000952C4D06EB050CDCF80850A6074FEA1B
:1003C000167809FA08F6B543274EB04202D1002646
:1003D00010E03BE0254EB04201D101260AE0244E58
:1003E000B04201D1022605E0224EB04201D10326DF
:1003F00000E0042606FA08F62E43CCF808604D68A3
:10040000DAF80060ED03554601D51E4300E09E4337
:100410002E604D68DBF80060AD035D4601D51E43DC
:1004200000E09E432E604D68DEF80060ED027546E8
:1004300001D51E4300E09E432E604D68AD020E4D77
:100440002E6801D51E4300E09E432E60641C102CD4
:10045000FFF444AFBDE8F88F000401400000111024
:10046000001002400000014000080140000C014063
:1004700000100140001401400C04014001480068D4
:100480007047000004000020074810B5016841F0E3
:1004900010010160032000F07BF8002000F006F856
:1004A00000F016F8002010BD0020024010B50446F0
:1004B00000F044F94FF47A71B0FBF1F000F083FCE6
:1004C00000222146501E00F043F8002010BD00001D
:1004D0001D4808B5816941F001018161806900F022
:1004E00001000090052000F053F8002211466FF043
:1004F0000B0000F02DF8002211466FF00A0000F00A
:1005000027F8002211466FF0090000F021F80022C0
:100510001146501F00F01CF800221146101F00F079
:1005200017F800221146901E00F012F80022114622
:10053000501E00F00DF80548416821F0E06141F0DF
:100540000071416008BD0000001002400000014041
:10055000F0B40E4B1B680C46C3F30223C3F107052E
:10056000042D00D90425191D072901D2002300E01C
:10057000DB1E012606FA05F1491E214099409E40E6
:10058000761E16403143F0BC00F026BD0CED00E0B5
:10059000064900F0070208684FF6FF03184040EADA
:1005A0000220034A10430860704700000CED00E091
:1005B0000000FA052DE9F047DFF8708105460E4688
:1005C000D8F8000000F00700B0420CD2D8F80010B4
:1005D00021F007013143C8F80010D8F8000000F0FE
:1005E0000700B04277D12878514C800705D5606864
:1005F000A96820F0F000084360602878C00759D04F
:100600006968012001290DD0022929D05FF0020379
:1006100093FAA3F2B2FA82F242F02002520904D015
:10062000226803E04FF40033F2E7626A93FAA3F31F
:10063000B3FA83F303F01F03984002424BD0606883
:1006400020F0030008436060FFF718FF6968074661
:1006500041F2883001290DD00229814617D025E0CA
:100660004FF00073D4E700BFFFF708FFC11B4945F7
:1006700001D918E081466068C0F381000128F3D1F8
:1006800018E000BFFFF7FAFEC11B49450BD86068B0
:10069000C0F381000228F5D10CE000BFFFF7EEFEA9
:1006A000C11B494502D90320BDE8F087606810F0FE
:1006B0000C0FF3D1D8F80010404601F00701B14209
:1006C0000BD9016821F0070131430160006800F097
:1006D0000700B04201D00120E6E72878400705D5A1
:1006E0006068E96820F4E0600843606028780007EB
:1006F00006D56068296920F4605040EAC100606056
:1007000000F052F86168F02292FAA2F201F0F001D2
:10071000B2FA82F2D140074A515CC84006490860EB
:100720000020FFF7C3FE0020BEE7000000200240CB
:100730000010024062240008000000200148006808
:100740007047000000000020084809490068496817
:100750004FF4E06292FAA2F201F4E061B2FA82F29E
:10076000D140044A515CC84070470000000000209E
:1007700000100240722400080848094900684968CE
:100780004FF4605292FAA2F201F46051B2FA82F28E
:10079000D140044A515CC84070470000000000206E
:1007A000001002407224000810B519A385B00FCBC9
:1007B0008DE80F001AA01B4B006804905A681A4875
:1007C00002F00C0104291DD008291BD14FF470142C
:1007D00094FAA4F402F47011B4FA84F4E140D20360
:1007E0001DF8011010D55A684FF4003393FAA3F3A3
:1007F00002F40032B3FA83F3DA4004AB9A5CB0FB44
:10080000F2F0484305B010BD08484843FAE700003D
:1008100002030405060708090A0B0C0D0E0F101041
:10082000010200000010024000127A0000093D00A1
:100830002DE9F84F04460078F74DC0074FF0010648
:1008400025D068687704C0F38100012807D0686864
:10085000C0F3810002281BD16868C00318D597FA3D
:10086000A7F0B0FA80F040F02000400901D02868DD
:1008700000E0686A97FAA7F1B1FA81F101F01F016F
:1008800006FA01F108425ED0606800287CD05AE088
:100890006068B0F5803F0BD010B1B0F5A02F11D03B
:1008A000286820F480302860286820F4802002E046
:1008B000286840F480302860606828B3FFF7DEFDC8
:1008C00080460BE0286840F480202860F0E700BFF5
:1008D000FFF7D4FDA0EB0800642871D897FAA7F0C1
:1008E000B0FA80F040F02000400901D0286800E014
:1008F000686A97FAA7F1B1FA81F101F01F0106FACF
:1009000001F10842E4D01EE0FFF7B8FD804605E0A3
:10091000FFF7B4FDA0EB08006428DED897FAA7F033
:10092000B0FA80F040F02000400901D0286800E0D3
:10093000686A97FAA7F1B1FA81F101F01F0106FA8E
:1009400001F10842E4D12078DFF8D08280074FF02F
:1009500000094FF002075BD568684FF0F80B10F004
:100960000C0F07D06868C0F3810002281CD16868AA
:10097000C00319D497FAA7F0B0FA80F040F0200035
:10098000400902D0286801E08BE0686A97FAA7F175
:10099000B1FA81F101F01F0106FA01F108422CD0F1
:1009A000206901287DD128E0206990B396FAA6F04D
:1009B000B0FA80F048F82060FFF760FD824607E05B
:1009C00011E100BFFFF75AFDA0EB0A00022884D80E
:1009D00097FAA7F0B0FA80F040F02000400901D06B
:1009E000286800E0686A97FAA7F1B1FA81F101F08E
:1009F0001F0106FA01F10842E4D028689BFAABF225
:100A00006169B2FA82F220F0F80091400843286050
:100A100025E0FFE796FAA6F1B1FA81F148F82190B6
:100A2000FFF72CFD824605E0FFF728FDA0EB0A004A
:100A30000228CCD897FAA7F0B0FA80F040F0200056
:100A4000400901D0286800E0686A97FAA7F1B1FA76
:100A500081F101F01F0106FA01F10842E4D120788A
:100A600000076ED5A069B8B396FAA6F0B0FA80F088
:100A700008EB8000C0F88064FFF700FD824605E0C7
:100A8000FFF7FCFCA0EB0A000228A0D897FAA7F019
:100A9000B0FA80F040F06000B6EB501F02D1286839
:100AA0000CE062E197FAA7F0B0FA80F040F0600045
:100AB000B7EB501F01D1286A00E0686A97FAA7F1E6
:100AC000B1FA81F101F01F0106FA01F21042D7D00C
:100AD0000120FFF7EAFB34E0FFE796FAA6F1B1FA4E
:100AE00081F108EB8101C1F88094FFF7C7FC8246D1
:100AF00006E000BFFFF7C2FCA0EB0A00022872D894
:100B000097FAA7F0B0FA80F040F06000B6EB501F03
:100B100001D128680BE097FAA7F0B0FA80F040F016
:100B20006000B7EB501F01D1286A00E0686A97FAAD
:100B3000A7F1B1FA81F101F01F0106FA01F21042AA
:100B4000D8D12078400765D5E86940F08050E86149
:100B5000E869DFF8CCB000F080500090DBF80010BE
:100B600041F48071CBF80010FFF788FC824605E065
:100B7000FFF784FCA0EB0A00642834D8DBF80000FF
:100B8000C005F5D5E06801280AD008B1052813D0C2
:100B9000286A20F001002862286A20F0040002E0A0
:100BA000286A40F001002862E06841F2883B90B377
:100BB000FFF764FC82460BE0286A40F004002862DC
:100BC000EEE700BFFFF75AFCA0EB0A0159450AD82F
:100BD00097FAA7F0B0FA80F040F04000B6EB501F53
:100BE00002D128680CE0A3E097FAA7F0B0FA80F0F1
:100BF00040F04000B7EB501F01D1286A00E0686A5E
:100C000097FAA7F1B1FA81F101F01F0206FA02F199
:100C10000842D7D031E005E0001002400000424217
:100C200000700040FFF72AFC824605E0FFF726FC33
:100C3000A0EB0A0159457BD897FAA7F0B0FA80F0EB
:100C400040F04000B6EB501F01D128680BE097FA46
:100C5000A7F0B0FA80F040F04000B7EB501F01D190
:100C6000286A00E0686A97FAA7F1B1FA81F101F009
:100C70001F0206FA02F10842D8D1E06980B3696820
:100C8000C1F38101022970D04FF080714F0002281A
:100C9000484609D091FAA1F1B1FA81F148F8210052
:100CA000FFF7ECFB044669E08A4691FAA1F1B1FA3C
:100CB00081F1C14648F82100FFF7E0FB804605E0DE
:100CC000FFF7DCFBA0EB0800022854D897FAA7F046
:100CD000B0FA80F040F02000400902D0286801E01E
:100CE00061E0686A97FAA7F1B1FA81F101F01F019A
:100CF00006FA01F10842E3D1206AB0F5803F05D140
:100D00006868A16820F4003008436860D4E90801ED
:100D10000843696821F47411084368609AFAAAF0DC
:100D2000B0FA80F049F82060FFF7A8FB044606E01F
:100D300021E000BFFFF7A2FB001B02281BD897FA97
:100D4000A7F0B0FA80F040F02000400901D02868F8
:100D500000E0686A97FAA7F1B1FA81F101F01F018A
:100D600006FA01F10842E5D01DE01EE0FFF786FB20
:100D7000001B022802D90320BDE8F88F97FAA7F0DC
:100D8000B0FA80F040F02000400901D0286800E06F
:100D9000686A97FAA7F1B1FA81F101F01F0106FA2A
:100DA00001F10842E2D10020E6E70120E4E74FF03C
:100DB000E0210428086903D020F00400086170478E
:100DC00040F00400FAE710B5401EB0F1807F01D377
:100DD000012010BD4FF0E02460610F21601700F08A
:100DE000FBF80020A06107202061002010BD70B535
:100DF000040004D094F83900002510B106E0012069
:100E000070BD84F83850204600F020F8022084F8A5
:100E100039002068C16821F40051C160204600F00B
:100E200081F92068016921F49041016120684169DC
:100E300021F02A0141612068C16841F40051C1607C
:100E4000E563012084F83900002070BD10B500680A
:100E5000114986B088421DD11048816941F4804112
:100E6000816180690E4C00F4804004904FF4007062
:100E70000090022001900320039069462046FFF76E
:100E80001FFA00212015CDE9000102916946204694
:100E9000FFF716FA06B010BD0038014000100240FE
:100EA000000801402DE9F047044690F839009946C2
:100EB0000D46012801D0222858D12DB322B394F831
:100EC0003800012852D0012684F838600027E763F3
:100ED00094F8390022281AD05FF0120084F8390003
:100EE000A284E2844FF48058E08C4B46401EE0849C
:100EF000A0684FF0000240454FF08001204613D11A
:100F000000F0C8F908BB04E00120BDE8F0873220FA
:100F1000E4E728882168C0F308004860206908B128
:100F20006D1C08E0AD1C06E000F0B4F968B921685A
:100F300015F8010B4860E08C0028D5D14B46002203
:100F40004021204600F0A6F908B10320DDE794F81F
:100F50003900322806D084F8396000BF84F8387030
:100F60000020D2E7222084F83900F7E70220CCE7FE
:100F7000094808B5816941F020018161816901F06A
:100F800020010091816941F004018161806900F0D4
:100F90000400009008BD0000001002400C4810B58D
:100FA0000A4901604FF4E1314160002181600C2267
:100FB000C160C0E904128161C161FFF718FF002818
:100FC00003D0BDE81040FFF76FB910BD00380140F5
:100FD00084000020FEE770470907090E002806DAA2
:100FE00000F00F0000F1E02080F8141D704700F1C0
:100FF000E02080F800147047704710B500F0B2FC94
:1010000000F0DCFFBDE8104000F0BABC30B58FB096
:1010100001210804CDE90010002402940225049166
:10102000CDE907504FF4E01009906846FFF700FC47
:1010300000B1FEE70F20CDE90A054FF48060CDE94D
:101040000C4002210AA80E94FFF7B4FA00B1FEE7A3
:10105000FFF774FB4FF47A71B0FBF1F0FFF7B3FECA
:101060000420FFF7A4FE00221146501EFFF770FA7D
:101070000FB030BD144910B54868144A10F00C0385
:10108000134803D0042B01D0082B09D00260496813
:10109000104AC1F30311515C0268CA40026010BDDE
:1010A0004A684B6802F470124FF0020413F4803F58
:1010B00004EB924202D04B689B0301D5064B00E043
:1010C000024B5A43E2E700000010024000127A008F
:1010D000000000206224000800093D000D4801685E
:1010E00041F00101016041680B4A11404160016813
:1010F0000A4A11400160016821F4802101604168C1
:1011000021F4FE0141604FF41F0181600449C003D6
:1011100008607047001002400000FFF8FFFFF6FE75
:1011200008ED00E02DE9F041044600680169E2683D
:1011300021F44051114301612169A06808436169AC
:1011400008432168CA6841F20C639A430243CA60AB
:1011500020684169A26921F44071114341614C4901
:1011600020686425322688423CD1FFF705FB00EB5E
:10117000C00101EB001061688900B0FBF1F7FFF7D7
:10118000FBFA00EBC00101EB00106168B04689007A
:10119000B0FBF1F0B0FBF5F06FF01801484307EB3E
:1011A000800106EB0110B0FBF5F000F0F006FFF750
:1011B000E3FA00EBC00101EB001061688900B0FBAD
:1011C000F1F0B0FBF5F006EB0016FFF7D5FA00EBF7
:1011D000C00101EB001061688900B0FBF1F7FFF777
:1011E000CBFA3BE0FFF7B0FA00EBC00101EB0010D7
:1011F00061688900B0FBF1F7FFF7A6FA00EBC001C8
:1012000001EB00106168B0468900B0FBF1F0B0FB63
:10121000F5F06FF01801484307EB800106EB011071
:10122000B0FBF5F000F0F006FFF78EFA00EBC0011E
:1012300001EB001061688900B0FBF1F0B0FBF5F044
:1012400006EB0016FFF780FA00EBC00101EB00107F
:1012500061688900B0FBF1F7FFF776FA00EBC00197
:1012600001EB001061688900B0FBF1F0B0FBF5F014
:101270006FF01801484307EB800108EB0110B0FB49
:10128000F5F0216800F00F0030448860BDE8F0817F
:10129000003801402DE9F0471D4690460E460446B1
:1012A000FFF7ECF807465FEA08004FF000094FF03F
:1012B000010808D030E0681C05D095B1FFF7DEF8D2
:1012C000C01BA8420DD82068006836EA0000F2D1A1
:1012D00027E0681C20D025B1FFF7D0F8C01BA8423A
:1012E0001AD92068C16821F08001C1602068C168F6
:1012F00021F02001C1602068C16821F48071C160C3
:101300002068416921F00101416184F8398084F845
:1013100038900320BDE8F0872068006836EA0000B6
:10132000D7D00020F6E7FEE7014A024900F040B8B6
:10133000C914000880000020002806D00E4910F0D3
:10134000FF0F03D0C0B2085C401C704710F47F4F01
:1013500004D0C0F30720085C0930704710F47F0FF9
:1013600004D0C0F30740085C1130704701EB1060F7
:1013700000781930704700007A24000802E008C89D
:10138000121F08C1002AFAD170477047002001E0FF
:1013900001C1121F002AFBD17047000003480168F9
:1013A000814201D001207047002070476C0000206E
:1013B0002DE9F04116460F460446002503E0394664
:1013C000B047641C6D1C20780028F8D12846BDE881
:1013D000F08100002DE9FC411F460446DDE908319B
:1013E000DDE90A65143040600060C4E90827C4E9FB
:1013F0000A310A46232118461C3400F0F7FAD4E9D2
:1014000003014218D4E90101104B121F00F08EFABB
:1014100044F81A0B002004F801690D4A04F8036B24
:10142000E4E8020544F8105901C404F83C0B01C477
:1014300044F87409009023460190194604F14400D1
:1014400000F02EFE0020BDE8FC8100000D1D00080C
:101450002F1F0008F0E905124A60D0E90012116060
:1014600040600060704700001FB50B480523142240
:101470004FF400718DE80F000023084A08A1783866
:1014800000F0C2FC002806D104B00348BDE81040BB
:10149000783800F015BD1FBD3C010020A9140008DC
:1014A000666C61673100000003A0FFF73DFF0A2072
:1014B00000F029FCF8E7000068656C6C6F20776F1E
:1014C000726B0D0A0000000038B504468DF800006C
:1014D0000223012269460248FFF7E4FC204638BD9A
:1014E0008400002010B5FEF7CFFFFFF78FFDFFF758
:1014F0003FFDFFF753FDFEF7A7FE002010BD10B51E
:1015000000F0C6F8BDE81040FFF7ECBF2DE9F04F42
:1015100085B09946DDE90EA5109C630602D5DFF87B
:1015200014C103E0DFF80CC1ACF1110CE30601D5E6
:1015300024F00104E30701D0302300E0202300263B
:101540000493A3070BD5002A02DA2D26524206E0A7
:10155000630701D52B2602E0230700D520260023B0
:101560004FF0300EEB461AB98DF800E001230CE085
:10157000B9F10A0F14D002F00F0812091CF8088004
:101580000BF803805B1C002AF2D1AB4200DD1D4644
:10159000AAEB050214F0110F4FF0200708D015E058
:1015A0000A27B2FBF7F807FB1828B2FBF7F2E5E7CA
:1015B0003EB1002A05DD521E03E0884200D80770C4
:1015C000401CB2F1000CA2F10102F6DC26B1884207
:1015D00001D80670521E401CE40605D508E088427A
:1015E00001D8049C0470401C141EA2F10102F6DC18
:1015F00074462E466D1E9E420ADD884200D8047055
:10160000401CF6E7884201D8E55C0570401C00E00C
:101610005C461D1EA3F10103F4DC03E0884200D800
:101620000770401C131EA2F10102F7DC05B0BDE8F3
:10163000F08F00008B2500081FB50A4C14230A22E6
:101640004FF48071A4F580708DE80F000023064AE6
:1016500006A1204600F0D8FB04B02046BDE81040AB
:1016600000F02EBC40040020FF1400086D61696E7C
:101670000000000070B5044C044D02E02068804773
:10168000241DAC42FAD370BDA0250008A425000893
:1016900070B5044C044D02E020688047241DAC4224
:1016A000FAD370BDA4250008A825000810B5FEF7E0
:1016B00039FD044A5188491C5180BDE81040FEF7AD
:1016C00035BD00006000002010B5FEF72BFD094974
:1016D0004A88521E12B24A80002A07DC00224A8041
:1016E000FEF724FDBDE8104000F0ECB9BDE8104065
:1016F000FEF71CBD6000002010B5FFF7BBFC0B48D7
:1017000064210068B0FBF1F0401EB0F1807F09D287
:101710004FF0E021064A4861FF20107000208861E8
:1017200007200861BDE81040FFF7A4BF00000020BB
:1017300023ED00E07047000070B50546041D2B48FE
:10174000016819B12846884700284DD028A0E16BD0
:1017500000F024F92AA0216A00F020F92CA0616A87
:1017600000F01CF92EA0A16A00F018F930A0E16A7F
:1017700000F014F932A0216800F010F934A061687B
:1017800000F00CF936A0A16800F008F938A0E16873
:1017900000F004F93AA0216900F000F93CA0616969
:1017A00000F0FCF83EA0A16900F0F8F840A0E16963
:1017B00000F0F4F842A0216B00F0F0F844A0616B57
:1017C00000F0ECF846A0A16B00F0E8F8287840079C
:1017D00006D500F04FFB014645A000F0DFF802E01F
:1017E0004BA000F0DBF8FEE770BD00000800002011
:1017F0007073723A203078253038780A0000000083
:101800007230303A203078253038780A00000000F5
:101810007230313A203078253038780A00000000E4
:101820007230323A203078253038780A00000000D3
:101830007230333A203078253038780A00000000C2
:101840007230343A203078253038780A00000000B1
:101850007230353A203078253038780A00000000A0
:101860007230363A203078253038780A000000008F
:101870007230373A203078253038780A000000007E
:101880007230383A203078253038780A000000006D
:101890007230393A203078253038780A000000005C
:1018A0007231303A203078253038780A0000000054
:1018B0007231313A203078253038780A0000000043
:1018C0007231323A203078253038780A0000000032
:1018D000206C723A203078253038780A00000000F9
:1018E0002070633A203078253038780A00000000F4
:1018F00068617264206661756C74206F6E20746814
:10190000726561643A2025730D0A0D0A000000001B
:1019100068617264206661756C74206F6E20686106
:101920006E646C65720D0A0D0A00000070B5044605
:10193000121D22F007000022094D403840F82250C5
:10194000521C102AFAD301620021416281624FF0D9
:10195000807200F13005C263C16285E81A0070BD73
:10196000EFBEADDE10B5FEF7DDFB044A1178491C71
:101970001170BDE81040FEF7D9BB00001C0000202C
:1019800010B5FEF7CFFB044A1178491E1170BDE86F
:101990001040FEF7CBBB00001C0000200FB47F21DD
:1019A00010B503AB0448029A00F0F0FB0248FFF7C1
:1019B000C1FE10BC5DF814FBB00500200268516048
:1019C00002680A60016048607047026851600268FE
:1019D0000A60016048607047D0E900124A60D0E9AF
:1019E00000121160406000607047000010B50346AF
:1019F000CCB2042A1AD3810718D1194644EA042329
:101A000043EA034306E008C1103A08C141F8083B25
:101A100041F8043C102AF6D201E008C1121F042A42
:101A2000FBD20B4602E000BF03F8014B521EFBD273
:101A300010BD10B50446FEF775FBF4E903124A60C9
:101A4000D4E90012116064602460BDE81040FEF724
:101A50006DBB0000074A002102EB01131B78834293
:101A600002D102EB01107047491C0429F4DB00206D
:101A700070470000200000202DE9F0410446174681
:101A80000E460846FFF7E6FF054646F08000207246
:101A900008223946204600F0EDF8FEF743FB55F8E2
:101AA000041F0C344C60296821602C606560BDE81F
:101AB000F041FEF73BBB007A000601D501207047DC
:101AC0000020704770B5FEF72DFB114C054660886D
:101AD000B0B9A068FFF730FC0E49401E626851F8AB
:101AE0003010143991420BD020700B48616000789F
:101AF00001F11C01002802F11C0006D0FEF719FBC1
:101B00002846BDE87040FEF711BBFEF712FBF7E771
:101B100060000020300600201C00002010B50446A4
:101B2000FEF700FB024694F834000E4920F00F0047
:101B3000401C84F8340094F8350001EBC00104F136
:101B400014004B6818604B68A361486006486161E7
:101B5000A16B836819438160BDE810401046FEF711
:101B6000E5BA0000300600206000002010B50446F1
:101B7000FEF7D8FA04F11401D1E900235360D1E94A
:101B800000231A60A161616194F83520074951F87A
:101B9000323001EBC2018B4204D10549A36B8A6844
:101BA0009A438A60BDE81040FEF7C0BA30060020B4
:101BB0006000002008B509A0FFF7F0FE0AA0FFF7BB
:101BC000EDFE12A0032300900022194612A0FFF799
:101BD000E5FEBDE8084018A0FFF7E0BE0A205C2043
:101BE0007C202F0A000000002D205254202D2020A0
:101BF000202020546872656164204F7065726174A2
:101C0000696E672053797374656D0A0041756720AA
:101C10002038203230313800202F207C205C2020DA
:101C200020202025642E25642E2564206275696C91
:101C3000642025730A0000002032303036202D2029
:101C40003230313820436F7079726967687420626E
:101C5000792072742D746872656164207465616D99
:101C60000A000000014600E0491C0A78002AFBD166
:101C7000081A704710B5002A07D0034611F8014B27
:101C800003F8014B2CB1521EF8D110BD03F8011B13
:101C900000E00021521EF9D110BD000010B50A4924
:101CA00000230A4C4B80184604EBC002401C5260D3
:101CB00012602028F8DB1F20087003484B600C30AE
:101CC0008B604060006010BD600000203006002086
:101CD00010B5074CA068FFF72FFB0649401E51F8CE
:101CE000300014386060BDE810401C30FEF74FBA79
:101CF000600000203006002001484060006070470E
:101D000078000020704700F0BBB8000070B51348A1
:101D10000468FEF707FA05462046FFF727FF042070
:101D200084F8340004F1440000F0AAF92046FFF7DB
:101D3000C2FE012801D1206F58B104F114010848F6
:101D4000FFF73CFE2846FEF7F1F9BDE87040FFF7CB
:101D5000B9BE2046FFF76DFEF4E7000064000020E6
:101D60006C00002000F002F8FCE7000070B521E0F4
:101D7000FEF7D8F90546FFF711FB10B313480168C9
:101D8000A1F11404D1E900024260D1E9000210601F
:101D900049600960FFF78AFC216F09B12046884736
:101DA0002046FFF788FE012809D0FFF78DFC284662
:101DB000FEF7BCF9FFF7F2FA0028D9D170BDFFF7A2
:101DC00083FC2846BDE87040FEF7B0B96C000020E7
:101DD0001FB5094820231F2280218DE80F00002312
:101DE000064A07A1783800F00FF804B00248BDE8B1
:101DF0001040783800F064B830050020651D0008F8
:101E00007469646C650000002DE9FF5F92460EAABC
:101E10000C4692E8E0010A46994683460021FFF706
:101E20002BFE8DE8E0014B46524621465846FFF70F
:101E3000D1FA04B0BDE8F09F70B5044690F83400C4
:101E400000F00F00022802D04FF0FF3070BDFEF707
:101E500069F9054604F11400FFF7BEFD04F14400E2
:101E600000F07CF92846FEF761F92046FFF756FEA0
:101E7000002070BD01480068704700006400002029
:101E8000F1B5FEF74FF905460C480468204600F00E
:101E90002DF804F144006A460021064600F0D8F807
:101EA000304600F015F92846FEF740F9FFF70AFE24
:101EB000206B801C00D120630020F8BD640000204E
:101EC00010B590F83610012280F835108A400221B2
:101ED000826380F83410FFF7AFFF0348006808B151
:101EE000FFF7F0FD002010BD6400002070B504462F
:101EF00090F8340000F00F00012802D04FF0FF30BE
:101F000070BDFEF70FF9054694F8340020F00F007D
:101F1000801C84F834002046FFF728FE04F14400BA
:101F200000F01CF92846FEF701F9002070BD10B53D
:101F300004466FF00100206304F11400FFF74CFD2C
:101F40002046FFF7EBFDBDE81040FFF7BBBD0000EA
:101F500070B5FEF7E7F806461348046894F83400B5
:101F600000F00F00012819D1D4E90501884215D0ED
:101F700004F114000546FFF72FFD94F835000B49D6
:101F800001EBC00041680D604168696045602860F0
:101F90003046FEF7CBF8FFF795FD02E03046FEF73E
:101FA000C5F8002070BD000064000020300600204D
:101FB000014800687047000018000020094810B56B
:101FC0000168491C0160FFF755FF016C491E01645F
:101FD00003D1C16B0164FFF7BBFFBDE8104000F007
:101FE00003B80000180000202DE9F041FFF7E0FFE2
:101FF0000646FEF797F80746144D1EE060696FF03D
:102000000041301A143C88421AD22046FFF722FAC7
:10201000D4E907108847FFF7CBFF0646607A8107AF
:1020200008D5C10706D020F001006072204600F0FC
:102030004FF802E020F0010060722C68AC42DDD164
:102040003846BDE8F041FEF771B800007800002086
:1020500049B1012904D0022908D003290ED109E091
:10206000406A10600AE01168416207E0417A21F09D
:10207000020102E0417A41F0020141720020704702
:1020800070B50546FEF74EF804462846FFF7E2F91C
:102090002046FEF74BF82846FFF7CBFC002070BD2A
:1020A0002DE9F0411746DDE906580A461E4604466A
:1020B0000921FFF7E1FC28F0010161720021C4E968
:1020C0000951C4E90776143464602460BDE8F081E6
:1020D000F8B50446FEF726F805462046FFF7BAF99C
:1020E000607A20F0010060722846FEF71FF8FFF7C3
:1020F0005FFF616A0844A062FEF714F80546164ABD
:102100000020009202EBC002694653686FF0004C59
:102110005DF820200BE01268A2EBC0067769A66A82
:10212000B74202D0BE1B664503D341F820209A4235
:10213000F1D10948001F0168491C016004F1140134
:102140000098FFF742FC607A40F001006072284678
:10215000FDF7ECFF0020F8BD7800002070B50446C4
:10216000407AC0070ED0FDF7DDFF05462046FFF799
:1021700071F92846FDF7DAFF607A20F001006072FD
:10218000002070BD4FF0FF3070BD00002DE9FF4F03
:10219000471804467F1E83B080464FF0FF394FF04A
:1021A000200A4FF0250BA74200D24F4608E1252810
:1021B00003D0BC4200D8207081E000260599491C5C
:1021C000059108782D2811D02B2812D0202813D063
:1021D000232814D0302815D00A784D46303A0A2AE0
:1021E00013D205A800F029F905461AE046F01006BA
:1021F000E4E746F00406E1E746F00806DEE746F0CD
:102200002006DBE746F00106D8E72A2809D1069820
:10221000491C059120C80690002D02DA6D4246F057
:102220001006CDF80090059801782E2918D1401C91
:1022300005900178A1F130020A2A04D205A800F025
:10224000FCF8009008E02A2908D1401C0590069867
:1022500002C8069000910846002801DA002000908C
:10226000059A00201178682901D06C2902D1521CEE
:102270000846059211780A236F296ED00CDC632979
:102280001FD004DC252979D058290DD17FE064299D
:1022900001D0692908D17EE0702960D073292CD043
:1022A00075297AD0782974D0BC4201D884F800B05E
:1022B0000598641C0178D1B3BC4200D82170641C1D
:1022C0007BE0F00608D450466D1E002D04DDBC42B4
:1022D00000D82070641CF7E70698BC4210F8041B75
:1022E000069000D82170504602E0BC4200D8207011
:1022F000641C6D1E002DF8DC5FE0069808C806908F
:1023000003B93DA31846FFF7ADFC0099002902DD93
:10231000884200DD0846F1060AD451462A466D1E61
:10232000824205DDBC4200D82170641CF6E750E013
:10233000002106E0BC4201D81A782270491C5B1CBF
:10234000641C8142F6DB524629466D1E814234DD13
:10235000BC4200D82270641CF6E716E00EE0681C50
:1023600002D1082546F0010600980296CDE90050FA
:1023700006981023394604C806901AE0BC429ED83D
:1023800084F800B09BE708E003E0082305E046F08E
:102390004006102301E046F002066C2801D06828B0
:1023A0001AD0069804C8069000983946CDE9005026
:1023B00002962046FFF7AAF804460598401C0590AF
:1023C0000598007800287FF4F2AEBC420DD820704A
:1023D0000CE0401E0590F0E7069830F8041B0690CC
:1023E0008AB2B007E0D512B2DEE7387007B0A4EBCE
:1023F0000800BDE8F08F0000284E554C4C29000025
:102400000020704700207047002070470020704770
:1024100010B5FDF787FEFFF76FF9FFF7CBFBFFF76E
:102420006BFCFFF73BFCFFF707F9FFF76BFCFFF7CF
:10243000CFFCFFF74DFC002010BD10B50146002079
:102440006FF02F0307E0541C0C60127800EB800043
:1024500003EB400010440A681478303C0A2CF2D395
:1024600010BD000000000000000001020304060788
:10247000080900000000010203040000010002003E
:10248000010003000100020001000400010002003D
:10249000010003000100020001000500010002002C
:1024A000010003000100020001000400010002001D
:1024B000010003000100020001000600010002000B
:1024C00001000300010002000100040001000200FD
:1024D00001000300010002000100050001000200EC
:1024E00001000300010002000100040001000200DD
:1024F00001000300010002000100070001000200CA
:1025000001000300010002000100040001000200BC
:1025100001000300010002000100050001000200AB
:10252000010003000100020001000400010002009C
:10253000010003000100020001000600010002008A
:10254000010003000100020001000400010002007C
:10255000010003000100020001000500010002006B
:10256000010003000100020001000400010002005C
:102570000100030001000200010030313233343524
:10258000363738396162636465660030313233341E
:102590003536373839414243444546000D2400085A
:1025A000052400080124000809240008CC2500089F
:1025B00000000020840000007C1300085026000862
:1025C00084000020AC0A00008C13000800A24A041A
:1025D00000000000000000000000000000000000FB
:1025E00000000000000000000000000000000000EB
:1025F00024000020240000207800000001000000DA
:1026000034000020340000202000000004000000FE
:1026100044000020440000203000000009000000B9
:1026200054000020540000202C0000000000000096
:10263000000000000000000000000000000000009A
:10264000000000000000000000000000000000008A
:04000005080000ED02
:00000001FF
